:100000000C9434000C947F000C947F000C947F00BF
:100010000C947F000C947F000C947F000C947F0064
:100020000C947F000C947F000C947F000C947F0054
:100030000C947F000C947F000C947F000C947F0044
:100040000C947F000C947F000C947F000C947F0034
:100050000C947F000C947F000C947F000C947F0024
:100060000C947F000C947F0011241FBECFEFD8E0CA
:10007000DEBFCDBF0E9459000C946E00F894FFCFF4
:100080001816B4F4419A2FEF31EE94E0215030402D
:100090009040E1F700C0000041982FEF35EA9EE064
:1000A000215030409040E1F700C00000815051F7EE
:0200B0000895B1
:1000B2000E94790080E0C0E011E0D0E0499907C0D9
:1000C200811105C0CF5F8C2F0E944000812F49997A
:0A00D2008D2F1999F3CFC0E0F1CF94
:1000DC00EC010E9484000E948300CE010E948500E6
:0600EC00CE010E9481001C
:0C00F20051982198299A399A4198089554
:0400FE000C9400005E
:040102000E943E0019
:0201060008955A
:02010800089558
:02010A00089556
:00000001FF
