:100000000C9434000C9486000C9486000C948600AA
:100010000C9486000C9486000C9486000C94860048
:100020000C9486000C9486000C9486000C94860038
:100030000C9486000C9486000C9486000C94860028
:100040000C9486000C9486000C9486000C94860018
:100050000C9486000C9486000C9486000C94860008
:100060000C9486000C94860011241FBECFEFD8E0BC
:10007000DEBFCDBF0E9459000C947000F894FFCFF2
:100080001816B4F42D9A2FEF31EE94E02150304041
:100090009040E1F700C000002D982FEF33EC99E07D
:1000A000215030409040E1F700C00000815051F7EE
:0200B0000895B1
:1000B2000E948100C0E010E001E0D0E00E947B00DD
:1000C200882339F0C11105C01F5F812F0E944000B3
:0E00D200C02F0E947B008111F1CFCD2FEFCF08
:1000E000EC010E948B000E948A00CE010E948C00CD
:0600F000CE010E94880011
:0C00F60083B18095881F8827881F08951B
:0A01020027982F9A259A2D9808954A
:04010C000C9400004F
:040110000E943E000B
:0201140008954C
:0201160008954A
:02011800089548
:00000001FF
