:100000000C9434000C947B000C947B000C947B00CB
:100010000C947B000C947B000C947B000C947B0074
:100020000C947B000C947B000C947B000C947B0064
:100030000C947B000C947B000C947B000C947B0054
:100040000C947B000C947B000C947B000C947B0044
:100050000C947B000C947B000C947B000C947B0034
:100060000C947B000C947B0011241FBECFEFD8E0D2
:10007000DEBFCDBF0E9440000C946800F894FFCF13
:100080000E945B00D0E0C0E001E010E049990AC0A6
:10009000D11108C0CF5FC03108F0C0E08C2F0E94A2
:1000A0007300D02F4999D12F1999F0CF812F0E9439
:0600B0007300C0E0EBCF7D
:1000B6005198599A2198299A399A41983A9A429888
:0A00C6003B9A43983C9A4498089531
:1000D000EC010E9480000E947F00CE010E948100FE
:0600E000CE010E947D002C
:1000E60098B1907698B998B1880F982B98B90895D9
:0400F6000C94000066
:0400FA000E943E0022
:0200FE00089563
:02010000089560
:0201020008955E
:00000001FF
